:020000040800F2
:10000000800600202902000831020008330200089F
:10001000350200083702000839020008000000001D
:100020000000000000000000000000003B0200088B
:100030003D020008000000003F020008950900088A
:10004000430200084302000843020008430200087C
:10005000430200084302000843020008430200086C
:10006000430200084302000843020008430200085C
:10007000430200084302000843020008430200084C
:10008000430200084302000843020008430200083C
:10009000430200084302000843020008430200082C
:1000A000430200084302000843020008430200081C
:1000B000430200084302000843020008430200080C
:1000C00043020008430200084302000843020008FC
:1000D00043020008430200084302000843020008EC
:1000E00043020008430200084302000843020008DC
:1000F00043020008430200084302000843020008CC
:1001000043020008430200084302000843020008BB
:1001100043020008430200084302000843020008AB
:10012000430200084302000843020008430200089B
:10013000430200084302000843020008430200088B
:10014000430200084302000843020008430200087B
:10015000430200084302000843020008430200086B
:10016000430200084302000843020008430200085B
:100170004302000843020008430200080000000098
:10018000430200084302000800F002F800F03CF8C7
:100190000AA090E8000C82448344AAF10107DA45E2
:1001A00001D100F031F8AFF2090EBAE80F0013F0F8
:1001B000010F18BFFB1A43F001031847BC0A0000E7
:1001C000DC0A0000103A24BF78C878C1FAD8520778
:1001D00024BF30C830C144BF04680C6070470000C1
:1001E0000023002400250026103A28BF78C1FBD840
:1001F000520728BF30C148BF0B6070471FB500F0E1
:1002000029FD1FBD10B510BD00F0E2F81146FFF743
:10021000F5FF00F0EBFC00F000F903B4FFF7F2FF8C
:1002200003BC00F007F9000009488047094800476F
:10023000FEE7FEE7FEE7FEE7FEE7FEE7FEE7FEE796
:10024000FEE7FEE704480549054A064B70470000F3
:100250006D0A000889010008800000208006002047
:10026000800200208002002053EA020C00F0698026
:100270002DE9F04B4FF00006002B1FBFB3FA83F5BA
:1002800003FA05F424FA05F65E4012BF1643B2FAEB
:1002900082F502FA05F4C5F120051EBF22FA05FC1D
:1002A00044EA0C04203556EA044C4FEA144418BFC3
:1002B000641C4FF000084FF00009904271EB030CF2
:1002C00039D3002919BFB1FA81F701FA07F6B0FA5C
:1002D00080F700FA07F6C7F120071EBF20FA07FCD7
:1002E00046EA0C062037B6FBF4FCA7EB0507103FE7
:1002F00007F01F0BCBF120060CFA0BFB2CFA06F6CD
:1003000044BFB3460026202FA4BF5E464FF0000B2B
:100310005BEA060C08BF4FF0010B19EB0B09ABFBB6
:10032000027C48EB0608C01B06FB02CC0BFB03CC8F
:1003300071EB0C01C1E70B46024641464846BDE859
:10034000F08B13B54FF000004FF00001AFF30080C9
:10035000BDE81C407047B2F120030AD5C2F120036A
:1003600001FA02F120FA03F300FA02F041EA030174
:10037000704700FA03F14FF0000070474FF00002A1
:1003800000B5134694469646203922BFA0E80C508B
:10039000A0E80C50B1F12001BFF4F7AF090728BF66
:1003A000A0E80C5048BF0CC05DF804EB890028BFE2
:1003B00040F8042B08BF704748BF20F8022B11F00B
:1003C000804F18BF00F8012B704770477047704787
:1003D000754600F02BF8AE4605006946534620F0FE
:1003E0000700854618B020B5FFF72CFFBDE8204078
:1003F0004FF000064FF000074FF000084FF0000BE1
:1004000021F00701AC46ACE8C009ACE8C009ACE893
:10041000C009ACE8C0098D46704710B50446AFF37B
:1004200000802046BDE81040FFF7F7BE0048704747
:100430001C00002001491820ABBEFEE72600020088
:100440007047000070B5054600F0B0FA0C4800682F
:100450000C490968884203D04FF47A7000F016F80E
:1004600009480468406800BF074802684068121BDA
:1004700060F10000521B70F10000F5D370BD000068
:1004800010000020180000200800002070B503466E
:10049000204803604FF0E020006940F004004FF076
:1004A000E02108610846006940F002000861084642
:1004B000006940F00100086117480068154A126899
:1004C000B0FBF2F1481EB0F1807F00D31BE0481E64
:1004D0004FF0E022506150170F22002804DB140770
:1004E000250E0E4C255406E01407260E0C4C00F089
:1004F0000F052D1F665500BF00204FF0E0229061D0
:100500000720106100BF0448006806490860002009
:1005100070BD0000140000201800002000E400E07E
:1005200018ED00E01000002000BFFEE70B48006857
:1005300040F00100094908600846006840F00800E2
:1005400008600846006840F004000860044800683D
:1005500040F0040002490860704700003038024053
:100560000000024010B53548006840F4804033492F
:1005700008603348006840F480303149086000204A
:10058000091D08600846006840F0E0600860084601
:10059000006840F0040008600846006840F42850F5
:1005A00008600846006808600846006840F480005B
:1005B0000860081F006840F08070091F086021482B
:1005C000006840F007001F4908601F48806940F438
:1005D00000301D4988611A480830006840F4004026
:1005E0001749083108600846006840F4A0500860C8
:1005F00000BF1348006800F40030B0F5003FF8D1A8
:1006000000BF0F48006800F00070B0F1007FF8D123
:100610000B480830006840F00200094908310860C2
:1006200000F0C4F906480830006800F00800082807
:1006300001D00A2010BD0020FCE70000007000403F
:1006400000380240003C02400000024070B5044601
:1006500015460022501E234E306022483038056077
:1006600042EA8112224342F48062001D026000BF10
:100670001C48001F006800F400600028F8D11948E9
:100680002C38006820F48060164E2C3E306009B98A
:10069000012000E00020022901D1012600E000260F
:1006A000304308B1002070BD012901D1012000E0D4
:1006B0000020032901D1012600E00026304378B153
:1006C00008482438006818600648203800685860D8
:1006D00004481C3800689860024818380068D860E0
:1006E0000020E0E7382C01401FB500231A461946C8
:1006F0001846FFF7ABFF6B464FF4D5720121082077
:10070000FFF7A4FF2948006800F0040008B10024A6
:1007100000E0012400231A4601213720FFF796FF4D
:1007200034B10098B0F5D57F01D1012400E0002458
:10073000002040EA84701E4940EA01026B46012114
:100740002920FFF783FF11E000231A4601213720FB
:10075000FFF77CFF1420FFF775FE6B46154A012159
:100760002920FFF773FF0A20FFF76CFE0098C00FE7
:100770000028E9D000231A4601210220FFF766FF76
:100780006B46002201210320FFF760FF0098000C58
:10079000094908800548006800F0400028B1074872
:1007A000806940F00200054988611FBD342C01407A
:1007B0000080FF000080FF40000000200000024099
:1007C000014800887047000000000020364800689B
:1007D00040F400603449086003203449086032481E
:1007E0001438006840F480002F49143908602F48FD
:1007F0002C30006840F008002C492C3108602B4850
:10080000001D006840F4BB702849091D0860284895
:100810000068284908432649086025480C300068CC
:100820002549084322490C3108602148001D006811
:100830001F49091D0860081D0068204908431C491C
:10084000083108601A48406A1D490843184948623F
:100850001C48006840F020001A49086019480C3014
:10086000006840F0100017490C3108601548001D61
:1008700000681449091D0860081D006840F0300038
:10088000091D08600F482030006840F440600D49A1
:100890002031086005482C30006840F09000034982
:1008A0002C3108607047000044380240002C0140A1
:1008B000000802400000AA02000055010000FF03EA
:1008C000CCCC0C00000C02402DE9F041ADF5007DD0
:1008D00006460F4690464FF400716846FFF74EFDFE
:1008E0002948006820F0010027490860274C084685
:1008F000046000240724244814300460002480206D
:10090000091D08602248091D0860091DC1F800D0B2
:100910001D48006840F001001B49086000231A468A
:1009200001210720FFF792FEFFF74AFF050400238D
:100930002A4601210720FFF789FE4FF40070144971
:1009400058390860601E091F086000BF44F0900419
:1009500044F0020444F0080444F001040C48543804
:10096000046000231A4601211120FFF76FFE00BF2B
:1009700007484C38006800F480700028F8D10DF565
:10098000007DBDE8F0810000586402402054A308B7
:10099000802C01400448036840685A1C40F1000064
:1009A00001490A60486070470800002070B50020C7
:1009B0000022022300240221274D2D6805F00C009F
:1009C00020B1042806D0082834D107E0234D244E56
:1009D000356033E0234D224E35602FE01E4D2D1F34
:1009E0002D68C5F380541C4D2D1F2D6805F03F0167
:1009F00054B11C4DB5FBF1F5174E361F3668C6F3E2
:100A0000881605FB06F209E0144DB5FBF1F5124E10
:100A1000361F3668C6F3881605FB06F20E4D2D1FED
:100A20002D68C5F301456D1C6B00B2FBF3F50C4E50
:100A3000356003E0094D0A4E356000BF00BF064D2A
:100A40002D68C5F30315084E705D054D2D68C54032
:100A5000034E356070BD0000083802400024F400E9
:100A60001800002000127A005E0C0008144800688C
:100A700040F47000124908601248006840F001001C
:100A80001049086000200F49083108600D480068CF
:100A90000D4908400B4908600C48091D0860081FF3
:100AA000006820F48020091F0860002005490C31EF
:100AB00008604FF00060024980390860704700000C
:100AC00088ED00E000380240FFFFF6FE1030002401
:100AD0002DE9F0474048006840F010003E490860AA
:100AE0003E48006840F420103C4908600846406ACF
:100AF00040F0700139484162406A40F4E061374893
:100B000041624FF416463648006840083101B0FB98
:100B1000F1F8344C002541F2883100202246A2FB36
:100B2000017C05FB01C104FB00153C46102200239B
:100B300020462946FFF798FB04460D46324600231F
:100B400020462946FFF790FB04460D4642F21070FE
:100B500008FB00F73A46002320462946FFF784FBAE
:100B600014461D4604271DE024196D4142F21072FF
:100B7000002320462946FFF777FB7A1E81468A46E6
:100B8000FFF7E9FB1849896808431749886042F272
:100B90001072002320462946FFF766FB14461D46C7
:100BA000781EC7B2002FDFDC0F48806840EA0810CB
:100BB0000D4988600846C06840F40050C860084687
:100BC000C06840F00800C8600846C06840F00400F3
:100BD000C860BDE8F08700004438024000000240D1
:100BE00018000020007A030A00100140FFF79EFC65
:100BF000FFF7B8FC0A2801D1FFF796FCFFF7E6FDE6
:100C0000FFF766FFFFF770FDFFF7DAFD040400232E
:100C1000224601210720FFF719FD00221146104648
:100C2000FFF752FE13E00A48806940F002000849CD
:100C300088614FF4FA70FFF705FC0548806940F4BD
:100C40000030034988614FF4FA70FFF7FBFBEAE7D5
:100C5000000002404FF04070E1EE100A70470000C3
:100C6000000000000000010203040607080900005C
:100C70000000010203040000980C0008000000209E
:100C80001C000000C4010008B40C00081C00002077
:100C900064060000E0010008000000000000000001
:100CA000000000000000000000000000E803000059
:040CB0000024F40028
:0400000508000229C4
:00000001FF
