:020000040800F2
:10000000800600202902000831020008330200089F
:10001000350200083702000839020008000000001D
:100020000000000000000000000000003B0200088B
:100030003D020008000000003F020008010A00081D
:10004000430200084302000843020008430200087C
:10005000430200084302000843020008430200086C
:10006000430200084302000843020008430200085C
:10007000430200084302000843020008430200084C
:10008000430200084302000843020008430200083C
:10009000430200084302000843020008430200082C
:1000A000430200084302000843020008430200081C
:1000B000430200084302000843020008430200080C
:1000C00043020008430200084302000843020008FC
:1000D00043020008430200084302000843020008EC
:1000E00043020008430200084302000843020008DC
:1000F00043020008430200084302000843020008CC
:1001000043020008430200084302000843020008BB
:1001100043020008430200084302000843020008AB
:10012000430200084302000843020008430200089B
:10013000430200084302000843020008430200088B
:10014000430200084302000843020008430200087B
:10015000430200084302000843020008430200086B
:10016000430200084302000843020008430200085B
:100170004302000843020008430200080000000098
:10018000430200084302000800F002F800F03CF8C7
:100190000AA090E8000C82448344AAF10107DA45E2
:1001A00001D100F031F8AFF2090EBAE80F0013F0F8
:1001B000010F18BFFB1A43F0010318475C0B000046
:1001C0007C0B0000103A24BF78C878C1FAD85207D7
:1001D00024BF30C830C144BF04680C6070470000C1
:1001E0000023002400250026103A28BF78C1FBD840
:1001F000520728BF30C148BF0B6070471FB500F0E1
:1002000079FD1FBD10B510BD00F0BBF81146FFF71A
:10021000F5FF00F035FD00F0D9F803B4FFF7F2FF69
:1002200003BC00F0E1F80000094880470948004796
:10023000FEE7FEE7FEE7FEE7FEE7FEE7FEE7FEE796
:10024000FEE7FEE704480549054A064B70470000F3
:10025000D90A0008890100088000002080060020DB
:10026000800200208002002053EA020C00F0698026
:100270002DE9F04B4FF00006002B1FBFB3FA83F5BA
:1002800003FA05F424FA05F65E4012BF1643B2FAEB
:1002900082F502FA05F4C5F120051EBF22FA05FC1D
:1002A00044EA0C04203556EA044C4FEA144418BFC3
:1002B000641C4FF000084FF00009904271EB030CF2
:1002C00039D3002919BFB1FA81F701FA07F6B0FA5C
:1002D00080F700FA07F6C7F120071EBF20FA07FCD7
:1002E00046EA0C062037B6FBF4FCA7EB0507103FE7
:1002F00007F01F0BCBF120060CFA0BFB2CFA06F6CD
:1003000044BFB3460026202FA4BF5E464FF0000B2B
:100310005BEA060C08BF4FF0010B19EB0B09ABFBB6
:10032000027C48EB0608C01B06FB02CC0BFB03CC8F
:1003300071EB0C01C1E70B46024641464846BDE859
:10034000F08B13B54FF000004FF00001AFF30080C9
:10035000BDE81C407047B2F120030AD5C2F120036A
:1003600001FA02F120FA03F300FA02F041EA030174
:10037000704700FA03F14FF0000070477047704774
:100380007047754600F02CF8AE46050069465346A6
:1003900020F00700854618B020B5FFF753FFBDE8F1
:1003A00020404FF000064FF000074FF000084FF0DC
:1003B000000B21F00701AC46ACE8C009ACE8C0096D
:1003C000ACE8C009ACE8C0098D46704710B50446DA
:1003D000AFF300802046BDE81040FFF71EBF0000CD
:1003E000004870471C00002001491820ABBEFEE702
:1003F000260002007047000070B5054600F00CFBB7
:100400000C4800680C490968884203D04FF47A70A0
:1004100000F016F809480468406800BF0748026801
:100420004068121B60F10000521B70F10000F5D310
:1004300070BD0000100000201800002008000020FF
:1004400070B50346204803604FF0E020006940F09B
:1004500004004FF0E02108610846006940F0020006
:1004600008610846006940F001000861174800680B
:10047000154A1268B0FBF2F1481EB0F1807F00D33C
:100480001BE0481E4FF0E022506150170F22002859
:1004900004DB1407250E0E4C255406E01407260E27
:1004A0000C4C00F00F052D1F665500BF00204FF0CB
:1004B000E02290610720106100BF044800680649EF
:1004C0000860002070BD000014000020180000200B
:1004D00000E400E018ED00E01000002000BFFEE79F
:1004E0000B48006840F001000949086008460068B0
:1004F00040F0080008600846006840F0040008600A
:100500000448006840F00400024908607047000099
:10051000303802400000024010B53548006840F411
:100520008040334908603348006840F480303149E6
:1005300008600020091D08600846006840F0E0607F
:1005400008600846006840F004000860084600683B
:1005500040F42850086008460068086008460068B3
:1005600040F480000860081F006840F08070091F98
:1005700008602148006840F007001F4908601F48D4
:10058000806940F400301D4988611A4808300068CD
:1005900040F400401749083108600846006840F4FC
:1005A000A050086000BF1348006800F40030B0F5A8
:1005B000003FF8D100BF0F48006800F00070B0F1B4
:1005C000007FF8D10B480830006840F0020009496C
:1005D0000831086000F020FA06480830006800F092
:1005E0000800082801D00A2010BD0020FCE7000008
:1005F0000070004000380240003C02400000024011
:100600002DE9F04106460C4617461D46B01110B1C3
:10061000FF20BDE8F0814FF0FF303949086001202C
:10062000FFF7EAFE002036492C3908600120FFF769
:10063000E3FE3348303807600120FFF7DDFE304825
:100640002C38006840EA84102D492C3908600120BC
:10065000FFF7D2FE2A482C380068304328492C394D
:1006600008600120FFF7C8FE25482C38006840F4D8
:10067000806023492C3908600120FFF7BDFE00BFD0
:100680001F48001F006800F400600028F8D1012016
:10069000FFF7B2FE1A482C38006820F48060184931
:1006A0002C3908600CB9012000E00020022C01D197
:1006B000012100E00021084308B10020A9E7012C36
:1006C00001D1012000E00020032C01D1012100E034
:1006D0000021084388B10A48243800682860084887
:1006E00020380068686006481C380068A860044824
:1006F00018380068E86000208BE7FF2089E70000D9
:10070000382C01401FB500231A4619461846FFF73A
:1007100077FF6B464FF4D57201210820FFF770FF79
:1007200000231A4601213720FFF76AFF0098B0F531
:10073000D57F1DD16B46344A01212920FFF760FF88
:1007400011E000231A4601213720FFF759FF14203A
:10075000FFF752FE6B462C4A01212920FFF750FF7C
:100760000A20FFF749FE0098C00F0028E9D01CE0DE
:100770006B46264A01212920FFF742FF11E00023A2
:100780001A4601213720FFF73BFF1420FFF734FE04
:100790006B461E4A01212920FFF732FF0A20FFF78E
:1007A0002BFE0098C00F0028E9D000231A46012133
:1007B0000220FFF725FF6B46002201210320FFF7EF
:1007C0001FFF0098000C124908801248006800F0D2
:1007D000400028B11048806940F002000E4988614D
:1007E0000C483038006820F0FF000A4930390860B2
:1007F0000120FFF701FE07483038006840F076001E
:100800000449303908601FBD0080FF400080FF00B0
:1008100000000020342C0140000002400148008804
:1008200070470000000000203EB56E48006840F4AC
:1008300000606C49086003206B4908600120FFF7E5
:10084000DBFD6948001D006840F480706649091DA1
:1008500008600120FFF7D0FD6348001D006840F4E8
:1008600000606149091D08600120FFF7C5FD5E4871
:10087000001D006840F0EE005B49091D0860012082
:10088000FFF7BAFD59A103C9CDE90101002048E0F5
:100890005849096801AA125C530002229A40114388
:1008A000544A116053490C31096801AA125C530083
:1008B00001229A4011434F4A0C3211604D49091DE3
:1008C000096801AA135C01229A401143494A121D8A
:1008D0001160111D096801AA125C530002229A409E
:1008E0001143444A0832116001A9095C07290BDD54
:1008F0004049496A01AA125C083A93000C229A40C6
:1009000011433C4A51620BE03A492031096801AA7F
:10091000125C93000C229A401143364A2032116037
:10092000401C0528B4DB34A00068009000244BE094
:10093000324800681DF804104A0002219140084323
:100940002E4908602D480C3000681DF804104A003C
:1009500001219140084329490C3108602748001DB6
:1009600000681DF804200121914008432349091D16
:100970000860081D00681DF804104A00022191401B
:1009800008431E49083108601DF8040007280BDDE4
:100990001A48406A01A9095D08398A000C21914072
:1009A0000843164948620BE01448203000681DF8DF
:1009B00004108A000C21914008431049203108603E
:1009C0000120FFF719FD641C012CB1DB06482C3017
:1009D000006840F0900004492C3108600120FFF7C6
:1009E0000BFD3EBD44380240002C014008090A0BB3
:1009F0000C0000000008024002000000000C024051
:100A00000448036840685A1C40F1000001490A602C
:100A1000486070470800002070B5002000220223C3
:100A200000240221274D2D6805F00C0020B1042878
:100A300006D0082834D107E0234D244E356033E03A
:100A4000234D224E35602FE01E4D2D1F2D68C5F31E
:100A500080541C4D2D1F2D6805F03F0154B11C4DD5
:100A6000B5FBF1F5174E361F3668C6F3881605FB41
:100A700006F209E0144DB5FBF1F5124E361F36684B
:100A8000C6F3881605FB06F20E4D2D1F2D68C5F323
:100A900001456D1C6B00B2FBF3F50C4E356003E0B5
:100AA000094D0A4E356000BF00BF064D2D68C5F3E5
:100AB0000315084E705D054D2D68C540034E356029
:100AC00070BD0000083802400024F4001800002027
:100AD00000127A00FE0C00081448006840F4700010
:100AE000124908601248006840F00100104908608F
:100AF00000200F49083108600D4800680D49084082
:100B00000B4908600C48091D0860081F006820F4A4
:100B10008020091F0860002005490C3108604FF053
:100B200000600249803908607047000088ED00E0ED
:100B300000380240FFFFF6FE1030002410B50246D8
:100B400000200AE000BF064B1B6803F04003002BA7
:100B5000F9D0135C024C6360401C8842F2D310BD94
:100B6000001001402DE9F0474048006840F01000B7
:100B70003E4908603E48006840F420103C49086047
:100B80000846406A40F0700139484162406A40F4CA
:100B9000E061374841624FF4164636480068400825
:100BA0003101B0FBF1F8344C002541F288310020CE
:100BB0002246A2FB017C05FB01C104FB00153C465B
:100BC0001022002320462946FFF74EFB04460D461F
:100BD0003246002320462946FFF746FB04460D46D1
:100BE00042F2107008FB00F73A46002320462946DF
:100BF000FFF73AFB14461D4604271DE024196D41FA
:100C000042F21072002320462946FFF72DFB7A1E80
:100C100081468A46FFF79FFB1849896808431749B0
:100C2000886042F21072002320462946FFF71CFB21
:100C300014461D46781EC7B2002FDFDC0F488068BF
:100C400040EA08100D4988600846C06840F400502A
:100C5000C8600846C06840F00800C8600846C06820
:100C600040F00400C860BDE8F0870000443802404E
:100C70000000024018000020007A030A0010014022
:100C80000EB5FFF72DFCFFF747FC0A2801D1FFF74F
:100C900025FCFFF7C9FDFFF765FF12A207CA8DE823
:100CA0000700FFF72FFDFFF7B9FD040400232246DC
:100CB00001210720FFF7A4FC0D48006840F4807074
:100CC0000B4908600023012211461120FFF798FC10
:100CD00007E00A216846FFF731FF4FF47A70FFF70B
:100CE0008BFBF6E7416C6C20646F6E650D0A0000AB
:100CF0002C2C01404FF04070E1EE100A70470000CC
:100D000000000000000001020304060708090000BB
:100D10000000010203040000380D0008000000205C
:100D20001C000000C4010008540D00081C00002035
:100D300064060000E0010008000000000000000060
:100D4000000000000000000000000000E8030000B8
:040D50000024F40087
:0400000508000229C4
:00000001FF
