:020000040800F2
:10000000800600202902000831020008330200089F
:10001000350200083702000839020008000000001D
:100020000000000000000000000000003B0200088B
:100030003D020008000000003F0200085D0A0008C1
:10004000430200084302000843020008430200087C
:10005000430200084302000843020008430200086C
:10006000430200084302000843020008430200085C
:10007000430200084302000843020008430200084C
:10008000430200084302000843020008430200083C
:10009000430200084302000843020008430200082C
:1000A000430200084302000843020008430200081C
:1000B000430200084302000843020008430200080C
:1000C00043020008430200084302000843020008FC
:1000D00043020008430200084302000843020008EC
:1000E00043020008430200084302000843020008DC
:1000F00043020008430200084302000843020008CC
:1001000043020008430200084302000843020008BB
:1001100043020008430200084302000843020008AB
:10012000430200084302000843020008430200089B
:10013000430200084302000843020008430200088B
:10014000430200084302000843020008430200087B
:10015000430200084302000843020008430200086B
:10016000430200084302000843020008430200085B
:100170004302000843020008430200080000000098
:10018000430200084302000800F002F800F03CF8C7
:100190000AA090E8000C82448344AAF10107DA45E2
:1001A00001D100F031F8AFF2090EBAE80F0013F0F8
:1001B000010F18BFFB1A43F0010318479C0B000006
:1001C000BC0B0000103A24BF78C878C1FAD8520797
:1001D00024BF30C830C144BF04680C6070470000C1
:1001E0000023002400250026103A28BF78C1FBD840
:1001F000520728BF30C148BF0B6070471FB500F0E1
:1002000099FD1FBD10B510BD00F0E2F81146FFF7D3
:10021000F5FF00F04FFD00F000F903B4FFF7F2FF27
:1002200003BC00F007F9000009488047094800476F
:10023000FEE7FEE7FEE7FEE7FEE7FEE7FEE7FEE796
:10024000FEE7FEE704480549054A064B70470000F3
:10025000350B00088901000880000020800600207E
:10026000800200208002002053EA020C00F0698026
:100270002DE9F04B4FF00006002B1FBFB3FA83F5BA
:1002800003FA05F424FA05F65E4012BF1643B2FAEB
:1002900082F502FA05F4C5F120051EBF22FA05FC1D
:1002A00044EA0C04203556EA044C4FEA144418BFC3
:1002B000641C4FF000084FF00009904271EB030CF2
:1002C00039D3002919BFB1FA81F701FA07F6B0FA5C
:1002D00080F700FA07F6C7F120071EBF20FA07FCD7
:1002E00046EA0C062037B6FBF4FCA7EB0507103FE7
:1002F00007F01F0BCBF120060CFA0BFB2CFA06F6CD
:1003000044BFB3460026202FA4BF5E464FF0000B2B
:100310005BEA060C08BF4FF0010B19EB0B09ABFBB6
:10032000027C48EB0608C01B06FB02CC0BFB03CC8F
:1003300071EB0C01C1E70B46024641464846BDE859
:10034000F08B13B54FF000004FF00001AFF30080C9
:10035000BDE81C407047B2F120030AD5C2F120036A
:1003600001FA02F120FA03F300FA02F041EA030174
:10037000704700FA03F14FF0000070474FF00002A1
:1003800000B5134694469646203922BFA0E80C508B
:10039000A0E80C50B1F12001BFF4F7AF090728BF66
:1003A000A0E80C5048BF0CC05DF804EB890028BFE2
:1003B00040F8042B08BF704748BF20F8022B11F00B
:1003C000804F18BF00F8012B704770477047704787
:1003D000754600F02BF8AE4605006946534620F0FE
:1003E0000700854618B020B5FFF72CFFBDE8204078
:1003F0004FF000064FF000074FF000084FF0000BE1
:1004000021F00701AC46ACE8C009ACE8C009ACE893
:10041000C009ACE8C0098D46704710B50446AFF37B
:1004200000802046BDE81040FFF7F7BE0048704747
:100430001C00002001491820ABBEFEE72600020088
:100440007047000070B5054600F014FB0C480068CA
:100450000C490968884203D04FF47A7000F016F80E
:1004600009480468406800BF074802684068121BDA
:1004700060F10000521B70F10000F5D370BD000068
:1004800010000020180000200800002070B503466E
:10049000204803604FF0E020006940F004004FF076
:1004A000E02108610846006940F002000861084642
:1004B000006940F00100086117480068154A126899
:1004C000B0FBF2F1481EB0F1807F00D31BE0481E64
:1004D0004FF0E022506150170F22002804DB140770
:1004E000250E0E4C255406E01407260E0C4C00F089
:1004F0000F052D1F665500BF00204FF0E0229061D0
:100500000720106100BF0448006806490860002009
:1005100070BD0000140000201800002000E400E07E
:1005200018ED00E01000002000BFFEE70B48006857
:1005300040F00100094908600846006840F00800E2
:1005400008600846006840F004000860044800683D
:1005500040F0040002490860704700003038024053
:100560000000024010B53548006840F4804033492F
:1005700008603348006840F480303149086000204A
:10058000091D08600846006840F0E0600860084601
:10059000006840F0040008600846006840F42850F5
:1005A00008600846006808600846006840F480005B
:1005B0000860081F006840F08070091F086021482B
:1005C000006840F007001F4908601F48806940F438
:1005D00000301D4988611A480830006840F4004026
:1005E0001749083108600846006840F4A0500860C8
:1005F00000BF1348006800F40030B0F5003FF8D1A8
:1006000000BF0F48006800F00070B0F1007FF8D123
:100610000B480830006840F00200094908310860C2
:1006200000F028FA06480830006800F008000828A2
:1006300001D00A2010BD0020FCE70000007000403F
:1006400000380240003C0240000002402DE9F04129
:1006500007460C4690461D46B81110B1FF20BDE874
:10066000F0810026701E274908600120FFF7EAFE8E
:1006700024483038C0F800800120FFF7E3FE46EA46
:1006800084163E4346F480661E482C38066000BF40
:100690001C48001F006800F400600028F8D11948C9
:1006A0002C38006820F4806016492C3908600CB999
:1006B000012000E00020022C01D1012100E00021F6
:1006C000084308B10020CAE7012C01D1012000E055
:1006D0000020032C01D1012100E00021084378B162
:1006E0000848243800682860064820380068686098
:1006F00004481C380068A860024818380068E860A0
:100700000020ACE7382C01401FB500231A461946DB
:100710001846FFF79BFF6B464FF4D5720121082066
:10072000FFF794FF00231A4601213720FFF78EFFC1
:100730000098B0F5D57F1DD16B462B4A01212920A9
:10074000FFF784FF11E000231A4601213720FFF74D
:100750007DFF1420FFF776FE6B46234A01212920F6
:10076000FFF774FF0A20FFF76DFE0098C00F002806
:10077000E9D01CE06B461D4A01212920FFF766FFE6
:1007800011E000231A4601213720FFF75FFF1420F4
:10079000FFF758FE6B46154A01212920FFF756FF47
:1007A0000A20FFF74FFE0098C00F0028E9D0002371
:1007B0001A4601210220FFF749FF6B460022012162
:1007C0000320FFF743FF0098000C094908800948FF
:1007D000006800F0400028B10748806940F002003E
:1007E000054988611FBD00000080FF400080FF00B8
:1007F00000000020342C0140000002400148008825
:1008000070470000000000203EB55FA103C9CDE99C
:1008100001015FA0006800905E48006840F400603D
:100820005C49086003205C490860002545F4807538
:1008300000BF45F07605081D0560002048E05749D7
:10084000096801AA125C530002229A401143534ADC
:10085000116052490C31096801AA125C530001224F
:100860009A4011434D4A0C3211604C49091D0968E8
:1008700001AA135C00229A401143484A121D1160DC
:10088000111D096801AA125C530002229A4011430B
:10089000424A0832116001A9095C07290BDD3F4972
:1008A000496A01AA125C083A93000C229A4011434B
:1008B0003A4A51620BE039492031096801AA125CB9
:1008C00093000C229A401143344A20321160401C9C
:1008D0000528B4DB00244BE0314800681DF8041003
:1008E0004A000221914008432D4908602C480C30F1
:1008F00000681DF804104A0001219140084328496E
:100900000C3108602648001D00681DF804200021F5
:10091000914008432249091D0860081D00681DF820
:1009200004104A000221914008431D490831086023
:100930001DF8040007280BDD1948406A01A9095D6C
:1009400008398A000C2191400843154948620BE0A0
:100950001348203000681DF804108A000C219140D3
:1009600008430F49203108600120FFF76BFD641C2C
:10097000012CB1DB002508482C30006840F09000C5
:1009800005492C3108603EBD08090A0B0C00000027
:100990000200000044380240002C014000080240E0
:1009A000000C02402DE9F04FADF5017D80468946EF
:1009B00092464FF4007101A8FFF7E0FC00270023E6
:1009C0001A4601210720FFF741FEFFF717FF4FEA04
:1009D000004B00235A4601210720FFF737FE4FF452
:1009E00000701D490860781E091F0860002444F04B
:1009F000900444F0020444F001041748001D046010
:100A00000A20FFF71FFD002500261EE000231A46DE
:100A100001211120FFF71AFE002013E000BF0E494C
:100A20000C31096801F400110029F8D00A49583145
:100A3000096801AA42F8201001A951F8201001B15B
:100A40000125401C8028E9DB761C002DDED000202B
:100A50000DF5017DBDE8F08F282C014004480368A6
:100A600040685A1C40F1000001490A604860704724
:100A70000800002070B5002000220223002402217B
:100A8000274D2D6805F00C0020B1042806D0082859
:100A900034D107E0234D244E356033E0234D224E00
:100AA00035602FE01E4D2D1F2D68C5F380541C4D61
:100AB0002D1F2D6805F03F0154B11C4DB5FBF1F51C
:100AC000174E361F3668C6F3881605FB06F209E096
:100AD000144DB5FBF1F5124E361F3668C6F3881675
:100AE00005FB06F20E4D2D1F2D68C5F301456D1C4B
:100AF0006B00B2FBF3F50C4E356003E0094D0A4E76
:100B0000356000BF00BF064D2D68C5F30315084EC4
:100B1000705D054D2D68C540034E356070BD000009
:100B2000083802400024F4001800002000127A0067
:100B30003E0D00081448006840F470001249086037
:100B40001248006840F001001049086000200F4979
:100B5000083108600D4800680D4908400B490860DD
:100B60000C48091D0860081F006820F48020091F38
:100B70000860002005490C3108604FF00060024910
:100B8000803908607047000088ED00E000380240BE
:100B9000FFFFF6FE103000242DE9F04740480068C2
:100BA00040F010003E4908603E48006840F42010C4
:100BB0003C4908600846406A40F07001394841628B
:100BC000406A40F4E061374841624FF416463648C7
:100BD000006840083101B0FBF1F8344C002541F2C7
:100BE000883100202246A2FB017C05FB01C104FBE9
:100BF00000153C461022002320462946FFF734FB0F
:100C000004460D463246002320462946FFF72CFBBA
:100C100004460D4642F2107008FB00F73A460023E6
:100C200020462946FFF720FB14461D4604271DE0F9
:100C300024196D4142F21072002320462946FFF725
:100C400013FB7A1E81468A46FFF785FB184989689F
:100C500008431749886042F2107200232046294653
:100C6000FFF702FB14461D46781EC7B2002FDFDCDB
:100C70000F48806840EA08100D4988600846C0683F
:100C800040F40050C8600846C06840F00800C860E2
:100C90000846C06840F00400C860BDE8F087000066
:100CA000443802400000024018000020007A030A85
:100CB000001001400EB5FFF739FCFFF753FC0A287E
:100CC00001D1FFF731FCFFF79FFDFFF765FF15A28C
:100CD00007CA8DE80700FFF717FDFFF78FFD040433
:100CE0000023224601210720FFF7B0FC0022114615
:100CF0001046FFF757FE13E00D48806940F00200F0
:100D00000B4988614FF4FA70FFF79CFB0848806933
:100D100040F40030064988614FF4FA70FFF792FB07
:100D2000EAE70000416C6C20646F6E650D0A0000FC
:100D3000000002404FF04070E1EE100A70470000E2
:100D4000000000000000010203040607080900007B
:100D50000000010203040000780D000800000020DC
:100D60001C000000C4010008940D00081C000020B5
:100D700064060000E0010008000000000000000020
:100D8000000000000000000000000000E803000078
:040D90000024F40047
:0400000508000229C4
:00000001FF
